:10000000FDC0000020C100001EC100001CC1000096
:100010001AC1000018C100000C9475100C94A810AF
:100020000C94DB100C940E110EC100000CC10000EA
:100030000AC1000008C1000023C4000059C4000028
:100040008FC40000C5C40000FBC4000031C500001F
:1000500067C500009DC50000D3C5000009C60000AB
:10006000F2C00000F0C00000EEC00000ECC00000D4
:10007000EAC00000E8C00000E6C00000E4C00000E4
:10008000E2C00000E0C00000DEC00000DCC00000F4
:10009000DAC00000D8C00000D6C00000D4C0000004
:1000A000D2C00000D0C00000CEC00000CCC0000014
:1000B000CAC00000C8C00000C6C000000C94A00860
:1000C0000C94D8080C9410090C9448090C948009DD
:1000D0000C94B8090C94F0090C94280A0C94600A4A
:1000E0000C94980AB0C00000AEC00000ACC0000084
:1000F000AAC00000A8C00000A6C00000A4C0000064
:10010000A2C00000A0C000009EC000009CC0000073
:100110009AC0000098C0000096C0000094C0000083
:1001200092C0000090C000008EC000008CC0000093
:100130008AC00000D5C500000BC6000041C6000003
:1001400077C60000ADC60000E3C6000019C7000076
:100150004FC7000085C70000BBC7000074C0000087
:1001600072C0000070C000006EC000006CC00000D3
:100170006AC0000068C0000066C0000064C00000E3
:1001800062C0000060C000005EC000005CC00000F3
:100190005AC0000058C0000056C0000054C0000003
:1001A00052C0000050C000004EC000004CC0000013
:1001B0000C94D00A0C94080B0C94400B0C94780B04
:1001C0000C94B00B0C94E80B0C94200C0C94580C71
:1001D0000C94900C0C94C80C36C0000034C0000085
:1001E00032C0000030C000002EC000002CC0000053
:1001F0002AC0000028C0000026C0000011241FBE35
:10020000CFEFCDBFDFE3DEBF00E00CBF18BE19BEED
:100210001ABE1BBE10E2A0E0B0E2E4E5F3E200E0AB
:100220000BBF02C007900D92A631B107D9F71BBED4
:1002300026E2A6E1B0E201C01D92A438B207E1F7C0
:1002400042D00C94A811DCCE9091252081E0891B2E
:10025000809325200895F8DF66E480EA99E00E9403
:100260009C0E8091252021E030E0281B310940E0E0
:1002700053E0249FC001259F900D349F900D1124C1
:100280008A589F4D80932320909324206AE170E246
:1002900080E00E9441119FB7F894E0E1F1E0808195
:1002A000806880839FBF089588E0E0E8F6E085835A
:1002B000E0E0F7E015828FE08683E0E2F6E0158269
:1002C00080EF86830895CF93DF93CDB7DEB72C9769
:1002D000CDBFDEBF87E08093A200F1D110927626D9
:1002E00010927726109278261092792610927A260C
:1002F000BB24B394B0927B2661E070E280EA99E07F
:100300000E947D0F43E050E060E180EA96E024D255
:1003100043E050E060E280EA96E01ED243E050E025
:1003200060E880EA96E018D280EC9BE037D2C12CDE
:10033000D12C760100E012E12AE730E040E060E0F5
:1003400070E280EC9BE053D28091C00B806480937C
:10035000C00B41E050E06FE080E097E0FDD141E06C
:1003600050E060EF80E296E0F7D141E050E064E0D9
:1003700080E896E0F1D143E050E068E080E896E064
:10038000EBD180E098E00E94000D63E073E080E034
:1003900098E00E945A0D80910108887F809301089F
:1003A0008AE090E0809326089093270880910608C1
:1003B0008C7F8093060880910608816080930608F0
:1003C0008BE0EAE1F0E2DF011D928A95E9F780EA2D
:1003D00099E080932120909322208091252021E094
:1003E00030E0281B310940E053E0249FC001259FE5
:1003F000900D349F900D11248A589F4D8093232097
:1004000090932420B0921C2040931E2050931F20D4
:1004100084E080931A208BE680931D200E94581060
:100420006BE271E080E00E946C1080911B20807F65
:10043000856080931B206AE170E280E00E94411198
:100440009FB7F894809110018068809310019FBF3E
:100450008091A20081608093A2007894BFEFE6EEC5
:10046000F8E1B150E040F040E1F700C000002FEFAC
:1004700086EE98E1215080409040E1F700C00000F6
:10048000AFEFB6EEE8E1A150B040E040E1F700C0C8
:100490000000FFEF26EE88E1F15020408040E1F7B8
:1004A00000C000009FEFA6EEB8E19150A040B04020
:1004B000E1F700C00000EFEFF6EE28E1E150F04078
:1004C0002040E1F700C000008FEF96EEA8E18150D8
:1004D0009040A040E1F700C00000BFEFE6EEF8E179
:1004E000B150E040F040E1F700C000002FEF86EE91
:1004F00098E1215080409040E1F700C00000AFEF4C
:10050000B6EEE8E1A150B040E040E1F700C00000E5
:100510008091252021E030E0281B310940E053E0A4
:10052000249FC001259F900D349F900D112461E000
:1005300070E08A589F4D0E94A11186DEB5DE66E408
:1005400080EA99E00E949C0E8E010F5F1F4F8CE0A5
:10055000D8011D928A95E9F760E070E280EC9BE09B
:1005600079D14CE050E0B80180EC9BE060D1809103
:100570000008807F816080930008F894A6E7B6E2C7
:10058000FD01E657F6428D918823D1F3309711F49F
:100590007894F3CF80914800EE0FFF1FE85FFF4D86
:1005A000817F9081892B80934800809148008160F1
:1005B0008093480078948895809148008E7F80933E
:1005C0004800DBCF84E0E0E8F6E085838AE68A95A0
:1005D000F1F700C084E08683089521E030E001C097
:1005E000220F8A95EAF7822F8F70E0E0F7E085838B
:1005F0001682207FE0E2F6E02583168288E0E0E8BC
:10060000F6E086830895CF93DF934EDEDBDFC0E014
:10061000D8E088E0898780911620DFDF81E090E0D4
:100620000090172002C0880F991F0A94E2F7969550
:10063000982F8827979587958EA39FA38091182040
:1006400090911920BC0133E0769567953A95E1F7D2
:10065000609317208770809316204091252090E6A4
:10066000699FB00111249CE0899F600D711D1124C8
:1006700020E033E0429FC001439F900D1124680F9A
:10068000791F6A587F4D4CE050E080EC9BE0CFD062
:10069000809118209091192001968F73992780934B
:1006A000182090931920DF91CF9108959FB7F89467
:1006B000E0E5F0E02081822B80839FBF08958FEFDB
:1006C0008093700080937100809372008093730018
:1006D00080937400809375008093760061E081E4DC
:1006E00090E00E9479118091510084FF0EC064E077
:1006F00080E490E00E9479119FB7F89480915000B7
:100700008E7F809350009FBF08958091510081FF9C
:100710000CC09FB7F89488E88093550080915000F2
:100720008061809350009FBF07C082E0BFDF80914F
:10073000510081FFFCCFEDCF8091510084FFFCCFB1
:10074000D6CF2FB7F894FC01E059FF4F6095808118
:10075000862380832FBF0895FC0180E090E0262F40
:1007600030E0D901082E02C0B595A7950A94E2F7AA
:10077000A0FF05C0DF01A80FB91F50965C9301963A
:100780008830910571F740FF07C041FF02C06583C3
:1007900001C066836183089562830895CF93DF93D8
:1007A000EC01C03C88E0D80721F468E083E090E0E9
:1007B00017C0C03C89E0D80721F468E084E090E0ED
:1007C0000FC0C03C8AE0D80721F468E085E090E0E3
:1007D00007C0C03C8BE0D80721F468E086E090E0D9
:1007E000B0DF888180618883DF91CF910895FF9287
:1007F0000F931F93CF93DF93EC01F42EB901A8015F
:1008000000E018E428EE31E00E94A90F87FD09C03E
:10081000888194E0F99EA00111244C70837F482BBD
:100820004883DF91CF911F910F91FF900895FB01B5
:10083000460F571FE417F50751F02191DC0113967D
:100840002C93DC0112962C9127FFFBCFF3CF80E095
:1008500090E00895FB018081E82FE695E695E69506
:1008600090E2E99FF0011124FA5F282F277081E0C0
:1008700090E0022E01C0880F0A94EAF7868308955B
:100880001F920F920FB60F92112408B60F9218BE46
:1008900009B60F9219BE0BB60F921BBE2F933F9352
:1008A0004F935F936F937F938F939F93AF93BF9378
:1008B000EF93FF93E0917420F0917520309709F049
:1008C0001995FF91EF91BF91AF919F918F917F917A
:1008D0006F915F914F913F912F910F900BBE0F90B1
:1008E00009BE0F9008BE0F900FBE0F901F90189575
:1008F0001F920F920FB60F92112408B60F9218BED6
:1009000009B60F9219BE0BB60F921BBE2F933F93E1
:100910004F935F936F937F938F939F93AF93BF9307
:10092000EF93FF93E0917220F0917320309709F0DC
:100930001995FF91EF91BF91AF919F918F917F9109
:100940006F915F914F913F912F910F900BBE0F9040
:1009500009BE0F9008BE0F900FBE0F901F90189504
:100960001F920F920FB60F92112408B60F9218BE65
:1009700009B60F9219BE0BB60F921BBE2F933F9371
:100980004F935F936F937F938F939F93AF93BF9397
:10099000EF93FF93E0917020F0917120309709F070
:1009A0001995FF91EF91BF91AF919F918F917F9199
:1009B0006F915F914F913F912F910F900BBE0F90D0
:1009C00009BE0F9008BE0F900FBE0F901F90189594
:1009D0001F920F920FB60F92112408B60F9218BEF5
:1009E00009B60F9219BE0BB60F921BBE2F933F9301
:1009F0004F935F936F937F938F939F93AF93BF9327
:100A0000EF93FF93E0916E20F0916F20309709F003
:100A10001995FF91EF91BF91AF919F918F917F9128
:100A20006F915F914F913F912F910F900BBE0F905F
:100A300009BE0F9008BE0F900FBE0F901F90189523
:100A40001F920F920FB60F92112408B60F9218BE84
:100A500009B60F9219BE0BB60F921BBE2F933F9390
:100A60004F935F936F937F938F939F93AF93BF93B6
:100A7000EF93FF93E0916C20F0916D20309709F097
:100A80001995FF91EF91BF91AF919F918F917F91B8
:100A90006F915F914F913F912F910F900BBE0F90EF
:100AA00009BE0F9008BE0F900FBE0F901F901895B3
:100AB0001F920F920FB60F92112408B60F9218BE14
:100AC00009B60F9219BE0BB60F921BBE2F933F9320
:100AD0004F935F936F937F938F939F93AF93BF9346
:100AE000EF93FF93E0916A20F0916B20309709F02B
:100AF0001995FF91EF91BF91AF919F918F917F9148
:100B00006F915F914F913F912F910F900BBE0F907E
:100B100009BE0F9008BE0F900FBE0F901F90189542
:100B20001F920F920FB60F92112408B60F9218BEA3
:100B300009B60F9219BE0BB60F921BBE2F933F93AF
:100B40004F935F936F937F938F939F93AF93BF93D5
:100B5000EF93FF93E0916820F0916920309709F0BE
:100B60001995FF91EF91BF91AF919F918F917F91D7
:100B70006F915F914F913F912F910F900BBE0F900E
:100B800009BE0F9008BE0F900FBE0F901F901895D2
:100B90001F920F920FB60F92112408B60F9218BE33
:100BA00009B60F9219BE0BB60F921BBE2F933F933F
:100BB0004F935F936F937F938F939F93AF93BF9365
:100BC000EF93FF93E0916620F0916720309709F052
:100BD0001995FF91EF91BF91AF919F918F917F9167
:100BE0006F915F914F913F912F910F900BBE0F909E
:100BF00009BE0F9008BE0F900FBE0F901F90189562
:100C00001F920F920FB60F92112408B60F9218BEC2
:100C100009B60F9219BE0BB60F921BBE2F933F93CE
:100C20004F935F936F937F938F939F93AF93BF93F4
:100C3000EF93FF93E0916420F0916520309709F0E5
:100C40001995FF91EF91BF91AF919F918F917F91F6
:100C50006F915F914F913F912F910F900BBE0F902D
:100C600009BE0F9008BE0F900FBE0F901F901895F1
:100C70001F920F920FB60F92112408B60F9218BE52
:100C800009B60F9219BE0BB60F921BBE2F933F935E
:100C90004F935F936F937F938F939F93AF93BF9384
:100CA000EF93FF93E0916220F0916320309709F079
:100CB0001995FF91EF91BF91AF919F918F917F9186
:100CC0006F915F914F913F912F910F900BBE0F90BD
:100CD00009BE0F9008BE0F900FBE0F901F90189581
:100CE0001F920F920FB60F92112408B60F9218BEE2
:100CF00009B60F9219BE0BB60F921BBE2F933F93EE
:100D00004F935F936F937F938F939F93AF93BF9313
:100D1000EF93FF93E0916020F0916120309709F00C
:100D20001995FF91EF91BF91AF919F918F917F9115
:100D30006F915F914F913F912F910F900BBE0F904C
:100D400009BE0F9008BE0F900FBE0F901F90189510
:100D50001F920F920FB60F92112408B60F9218BE71
:100D600009B60F9219BE0BB60F921BBE2F933F937D
:100D70004F935F936F937F938F939F93AF93BF93A3
:100D8000EF93FF93E0915E20F0915F20309709F0A0
:100D90001995FF91EF91BF91AF919F918F917F91A5
:100DA0006F915F914F913F912F910F900BBE0F90DC
:100DB00009BE0F9008BE0F900FBE0F901F901895A0
:100DC0001F920F920FB60F92112408B60F9218BE01
:100DD00009B60F9219BE0BB60F921BBE2F933F930D
:100DE0004F935F936F937F938F939F93AF93BF9333
:100DF000EF93FF93E0915C20F0915D20309709F034
:100E00001995FF91EF91BF91AF919F918F917F9134
:100E10006F915F914F913F912F910F900BBE0F906B
:100E200009BE0F9008BE0F900FBE0F901F9018952F
:100E30001F920F920FB60F92112408B60F9218BE90
:100E400009B60F9219BE0BB60F921BBE2F933F939C
:100E50004F935F936F937F938F939F93AF93BF93C2
:100E6000EF93FF93E0915A20F0915B20309709F0C7
:100E70001995FF91EF91BF91AF919F918F917F91C4
:100E80006F915F914F913F912F910F900BBE0F90FB
:100E900009BE0F9008BE0F900FBE0F901F901895BF
:100EA0001F920F920FB60F92112408B60F9218BE20
:100EB00009B60F9219BE0BB60F921BBE2F933F932C
:100EC0004F935F936F937F938F939F93AF93BF9352
:100ED000EF93FF93E0915820F0915920309709F05B
:100EE0001995FF91EF91BF91AF919F918F917F9154
:100EF0006F915F914F913F912F910F900BBE0F908B
:100F000009BE0F9008BE0F900FBE0F901F9018954E
:100F10001F920F920FB60F92112408B60F9218BEAF
:100F200009B60F9219BE0BB60F921BBE2F933F93BB
:100F30004F935F936F937F938F939F93AF93BF93E1
:100F4000EF93FF93E0915620F0915720309709F0EE
:100F50001995FF91EF91BF91AF919F918F917F91E3
:100F60006F915F914F913F912F910F900BBE0F901A
:100F700009BE0F9008BE0F900FBE0F901F901895DE
:100F80001F920F920FB60F92112408B60F9218BE3F
:100F900009B60F9219BE0BB60F921BBE2F933F934B
:100FA0004F935F936F937F938F939F93AF93BF9371
:100FB000EF93FF93E0915420F0915520309709F082
:100FC0001995FF91EF91BF91AF919F918F917F9173
:100FD0006F915F914F913F912F910F900BBE0F90AA
:100FE00009BE0F9008BE0F900FBE0F901F9018956E
:100FF0001F920F920FB60F92112408B60F9218BECF
:1010000009B60F9219BE0BB60F921BBE2F933F93DA
:101010004F935F936F937F938F939F93AF93BF9300
:10102000EF93FF93E0915220F0915320309709F015
:101030001995FF91EF91BF91AF919F918F917F9102
:101040006F915F914F913F912F910F900BBE0F9039
:1010500009BE0F9008BE0F900FBE0F901F901895FD
:101060001F920F920FB60F92112408B60F9218BE5E
:1010700009B60F9219BE0BB60F921BBE2F933F936A
:101080004F935F936F937F938F939F93AF93BF9390
:10109000EF93FF93E0915020F0915120309709F0A9
:1010A0001995FF91EF91BF91AF919F918F917F9192
:1010B0006F915F914F913F912F910F900BBE0F90C9
:1010C00009BE0F9008BE0F900FBE0F901F9018958D
:1010D0001F920F920FB60F92112408B60F9218BEEE
:1010E00009B60F9219BE0BB60F921BBE2F933F93FA
:1010F0004F935F936F937F938F939F93AF93BF9320
:10110000EF93FF93E0914E20F0914F20309709F03C
:101110001995FF91EF91BF91AF919F918F917F9121
:101120006F915F914F913F912F910F900BBE0F9058
:1011300009BE0F9008BE0F900FBE0F901F9018951C
:101140001F920F920FB60F92112408B60F9218BE7D
:1011500009B60F9219BE0BB60F921BBE2F933F9389
:101160004F935F936F937F938F939F93AF93BF93AF
:10117000EF93FF93E0914C20F0914D20309709F0D0
:101180001995FF91EF91BF91AF919F918F917F91B1
:101190006F915F914F913F912F910F900BBE0F90E8
:1011A00009BE0F9008BE0F900FBE0F901F901895AC
:1011B0001F920F920FB60F92112408B60F9218BE0D
:1011C00009B60F9219BE0BB60F921BBE2F933F9319
:1011D0004F935F936F937F938F939F93AF93BF933F
:1011E000EF93FF93E0914A20F0914B20309709F064
:1011F0001995FF91EF91BF91AF919F918F917F9141
:101200006F915F914F913F912F910F900BBE0F9077
:1012100009BE0F9008BE0F900FBE0F901F9018953B
:101220001F920F920FB60F92112408B60F9218BE9C
:1012300009B60F9219BE0BB60F921BBE2F933F93A8
:101240004F935F936F937F938F939F93AF93BF93CE
:10125000EF93FF93E0914820F0914920309709F0F7
:101260001995FF91EF91BF91AF919F918F917F91D0
:101270006F915F914F913F912F910F900BBE0F9007
:1012800009BE0F9008BE0F900FBE0F901F901895CB
:101290001F920F920FB60F92112408B60F9218BE2C
:1012A00009B60F9219BE0BB60F921BBE2F933F9338
:1012B0004F935F936F937F938F939F93AF93BF935E
:1012C000EF93FF93E0914620F0914720309709F08B
:1012D0001995FF91EF91BF91AF919F918F917F9160
:1012E0006F915F914F913F912F910F900BBE0F9097
:1012F00009BE0F9008BE0F900FBE0F901F9018955B
:101300001F920F920FB60F92112408B60F9218BEBB
:1013100009B60F9219BE0BB60F921BBE2F933F93C7
:101320004F935F936F937F938F939F93AF93BF93ED
:10133000EF93FF93E0914420F0914520309709F01E
:101340001995FF91EF91BF91AF919F918F917F91EF
:101350006F915F914F913F912F910F900BBE0F9026
:1013600009BE0F9008BE0F900FBE0F901F901895EA
:101370001F920F920FB60F92112408B60F9218BE4B
:1013800009B60F9219BE0BB60F921BBE2F933F9357
:101390004F935F936F937F938F939F93AF93BF937D
:1013A000EF93FF93E0914220F0914320309709F0B2
:1013B0001995FF91EF91BF91AF919F918F917F917F
:1013C0006F915F914F913F912F910F900BBE0F90B6
:1013D00009BE0F9008BE0F900FBE0F901F9018957A
:1013E0001F920F920FB60F92112408B60F9218BEDB
:1013F00009B60F9219BE0BB60F921BBE2F933F93E7
:101400004F935F936F937F938F939F93AF93BF930C
:10141000EF93FF93E0914020F0914120309709F045
:101420001995FF91EF91BF91AF919F918F917F910E
:101430006F915F914F913F912F910F900BBE0F9045
:1014400009BE0F9008BE0F900FBE0F901F90189509
:101450001F920F920FB60F92112408B60F9218BE6A
:1014600009B60F9219BE0BB60F921BBE2F933F9376
:101470004F935F936F937F938F939F93AF93BF939C
:10148000EF93FF93E0913E20F0913F20309709F0D9
:101490001995FF91EF91BF91AF919F918F917F919E
:1014A0006F915F914F913F912F910F900BBE0F90D5
:1014B00009BE0F9008BE0F900FBE0F901F90189599
:1014C0001F920F920FB60F92112408B60F9218BEFA
:1014D00009B60F9219BE0BB60F921BBE2F933F9306
:1014E0004F935F936F937F938F939F93AF93BF932C
:1014F000EF93FF93E0913C20F0913D20309709F06D
:101500001995FF91EF91BF91AF919F918F917F912D
:101510006F915F914F913F912F910F900BBE0F9064
:1015200009BE0F9008BE0F900FBE0F901F90189528
:101530001F920F920FB60F92112408B60F9218BE89
:1015400009B60F9219BE0BB60F921BBE2F933F9395
:101550004F935F936F937F938F939F93AF93BF93BB
:10156000EF93FF93E0913A20F0913B20309709F000
:101570001995FF91EF91BF91AF919F918F917F91BD
:101580006F915F914F913F912F910F900BBE0F90F4
:1015900009BE0F9008BE0F900FBE0F901F901895B8
:1015A0001F920F920FB60F92112408B60F9218BE19
:1015B00009B60F9219BE0BB60F921BBE2F933F9325
:1015C0004F935F936F937F938F939F93AF93BF934B
:1015D000EF93FF93E0913820F0913920309709F094
:1015E0001995FF91EF91BF91AF919F918F917F914D
:1015F0006F915F914F913F912F910F900BBE0F9084
:1016000009BE0F9008BE0F900FBE0F901F90189547
:101610001F920F920FB60F92112408B60F9218BEA8
:1016200009B60F9219BE0BB60F921BBE2F933F93B4
:101630004F935F936F937F938F939F93AF93BF93DA
:10164000EF93FF93E0913620F0913720309709F027
:101650001995FF91EF91BF91AF919F918F917F91DC
:101660006F915F914F913F912F910F900BBE0F9013
:1016700009BE0F9008BE0F900FBE0F901F901895D7
:101680001F920F920FB60F92112408B60F9218BE38
:1016900009B60F9219BE0BB60F921BBE2F933F9344
:1016A0004F935F936F937F938F939F93AF93BF936A
:1016B000EF93FF93E0913420F0913520309709F0BB
:1016C0001995FF91EF91BF91AF919F918F917F916C
:1016D0006F915F914F913F912F910F900BBE0F90A3
:1016E00009BE0F9008BE0F900FBE0F901F90189567
:1016F0001F920F920FB60F92112408B60F9218BEC8
:1017000009B60F9219BE0BB60F921BBE2F933F93D3
:101710004F935F936F937F938F939F93AF93BF93F9
:10172000EF93FF93E0913220F0913320309709F04E
:101730001995FF91EF91BF91AF919F918F917F91FB
:101740006F915F914F913F912F910F900BBE0F9032
:1017500009BE0F9008BE0F900FBE0F901F901895F6
:101760001F920F920FB60F92112408B60F9218BE57
:1017700009B60F9219BE0BB60F921BBE2F933F9363
:101780004F935F936F937F938F939F93AF93BF9389
:10179000EF93FF93E0913020F0913120309709F0E2
:1017A0001995FF91EF91BF91AF919F918F917F918B
:1017B0006F915F914F913F912F910F900BBE0F90C2
:1017C00009BE0F9008BE0F900FBE0F901F90189586
:1017D0001F920F920FB60F92112408B60F9218BEE7
:1017E00009B60F9219BE0BB60F921BBE2F933F93F3
:1017F0004F935F936F937F938F939F93AF93BF9319
:10180000EF93FF93E0912E20F0912F20309709F075
:101810001995FF91EF91BF91AF919F918F917F911A
:101820006F915F914F913F912F910F900BBE0F9051
:1018300009BE0F9008BE0F900FBE0F901F90189515
:101840001F920F920FB60F92112408B60F9218BE76
:1018500009B60F9219BE0BB60F921BBE2F933F9382
:101860004F935F936F937F938F939F93AF93BF93A8
:10187000EF93FF93E0912C20F0912D20309709F009
:101880001995FF91EF91BF91AF919F918F917F91AA
:101890006F915F914F913F912F910F900BBE0F90E1
:1018A00009BE0F9008BE0F900FBE0F901F901895A5
:1018B0001F920F920FB60F92112408B60F9218BE06
:1018C00009B60F9219BE0BB60F921BBE2F933F9312
:1018D0004F935F936F937F938F939F93AF93BF9338
:1018E000EF93FF93E0912A20F0912B20309709F09D
:1018F0001995FF91EF91BF91AF919F918F917F913A
:101900006F915F914F913F912F910F900BBE0F9070
:1019100009BE0F9008BE0F900FBE0F901F90189534
:101920001F920F920FB60F92112408B60F9218BE95
:1019300009B60F9219BE0BB60F921BBE2F933F93A1
:101940004F935F936F937F938F939F93AF93BF93C7
:10195000EF93FF93E0912820F0912920309709F030
:101960001995FF91EF91BF91AF919F918F917F91C9
:101970006F915F914F913F912F910F900BBE0F9000
:1019800009BE0F9008BE0F900FBE0F901F901895C4
:101990001F920F920FB60F92112408B60F9218BE25
:1019A00009B60F9219BE0BB60F921BBE2F933F9331
:1019B0004F935F936F937F938F939F93AF93BF9357
:1019C000EF93FF93E0912620F0912720309709F0C4
:1019D0001995FF91EF91BF91AF919F918F917F9159
:1019E0006F915F914F913F912F910F900BBE0F9090
:1019F00009BE0F9008BE0F900FBE0F901F90189554
:101A0000CF93CFB7F894811528E0920711F461E0E5
:101A100005C0803428E0920749F462E083E090E05A
:101A20000E94A10364E083E090E037C0811529E0C3
:101A3000920711F461E005C0803429E0920749F46F
:101A400062E084E090E00E94A10364E084E090E022
:101A500024C081152AE0920711F461E005C08034AA
:101A60002AE0920749F462E085E090E00E94A10339
:101A700064E085E090E011C081152BE0920711F43D
:101A800061E004C080349B4091F462E086E090E025
:101A90000E94A10364E086E090E00E94A1039FB74A
:101AA000F894809177268F5F809377269FBFCFBF72
:101AB000CF910895811528E0920729F4609374204E
:101AC000709375200895803428E0920729F460937C
:101AD0006820709369200895811529E0920729F400
:101AE00060936020709361200895803429E092070C
:101AF00029F46093542070935520089581152AE0AD
:101B0000920729F460934C2070934D2008958034FF
:101B10002AE0920729F460934020709341200895B1
:101B200081152BE0920729F46093382070933920B7
:101B3000089580349B4021F460932C2070932D20D5
:101B40000895009709F4F7C0803C910511F460E115
:101B500005C0803424E0920721F468E080E090E042
:101B6000E8C0811524E0920711F464E0F7CF8038D3
:101B700021E0920711F462E0F1CF811521E0920794
:101B800011F461E0EBCF803823E0920711F461E0BB
:101B900017C0803923E0920711F461E019C0811564
:101BA00022E0920711F462E00BC0803422E0920739
:101BB00011F462E00DC0811523E0920721F464E086
:101BC00081E090E0B6C0803223E0920721F464E027
:101BD00082E090E0AEC0811528E0920711F461E048
:101BE0008FC0811529E0920711F461E091C0811541
:101BF0002AE0920711F461E093C081152BE092076F
:101C000011F461E094C0803428E0920711F462E09E
:101C100077C0803429E0920711F462E079C0803403
:101C20002AE0920711F462E07BC080342BE0920737
:101C300011F462E07CC0803928E0920711F464E07E
:101C40005FC0803929E0920711F464E061C08039F7
:101C50002AE0920711F464E063C080392BE0920718
:101C600011F464E064C0803C28E0920711F468E05D
:101C700047C0803C29E0920711F468E049C0803CED
:101C80002AE0920711F468E04BC0803C2BE09207F9
:101C900011F468E04CC0803A28E0920711F460E14A
:101CA0002FC0803A29E0920711F460E131C0803AF8
:101CB0002AE0920711F460E133C0803A2BE09207EA
:101CC00011F460E134C0803B28E0920711F460E237
:101CD00017C0803B29E0920711F460E219C0803BF5
:101CE0002AE0920711F460E21BC0803B2BE09207D0
:101CF00011F460E21CC0803824E0920721F460E413
:101D000083E090E016C0803924E0920721F460E47B
:101D100084E090E00EC0803A24E0920721F460E471
:101D200085E090E006C0803B944029F460E486E0C2
:101D300090E00C94A1030895FC01218125FFFCCFC4
:101D4000608380E090E008958F929F92AF92BF925F
:101D5000CF92DF92EF92FF920F931F93CF93DF9377
:101D6000EC016A017B0148015901B901A801A3E016
:101D70007695679557954795AA95D1F7D901C801EA
:101D800016E1B695A795979587951A95D1F72C8169
:101D900022FD08C07695679557954795B695A79506
:101DA000979587954C155D056E057F0508F497C0DE
:101DB000C816D906EA06FB0608F491C08C8182FD9C
:101DC00004C0CC0CDD1CEE1CFF1CC501B401A70136
:101DD000960195D28FEF90E0A0E0B0E019EF2817C0
:101DE00039074A075B0758F0880F991FAA1FBB1FC6
:101DF0001D3F0CF481601F5F173089F74BC017FF40
:101E000049C0D701C60103E0880F991FAA1FBB1F55
:101E10000A95D1F7881A990AAA0ABB0A812F99272D
:101E200087FD90951E3FE4F46DEF7FEF681B790B03
:101E3000A501940104C0220F331F441F551F6A954A
:101E4000D2F7CA01B90146015701B694A7949794F5
:101E50008794680D791D8A1D9B1DA701960118C0E6
:101E60009C012D5F3F4FD701C60104C0880F991F09
:101E7000AA1FBB1F2A95D2F79C01AD01BC01CD0161
:101E80009695879577956795680D791D8A1D9B1D99
:101E900036D21CC023E0210FD701C60104C0880F31
:101EA000991FAA1FBB1F2A95D2F79C01AD01BC0147
:101EB000CD019695879577956795680D791D8A1D53
:101EC0009B1D1DD22150310941095109832F8F706B
:101ED0001295107F812B8F832E8381E001C080E0DB
:101EE000DF91CF911F910F91FF90EF90DF90CF90F6
:101EF000BF90AF909F908F9008950F931F93CF93B3
:101F0000DF93EC018B011DDE8D818F738D83F801D2
:101F100086819481892B9085992311F098E001C0E6
:101F200090E0892B8D83F80140815181628173811A
:101F300000E018E428EE31E0CE0106DF9C819860D5
:101F40009C839C8190619C83DF91CF911F910F9125
:101F50000895CF92DF92EF92FF920F931F93CF934A
:101F6000DF93EC016A017B01CB01BA016150710979
:101F700081099109600F711F821F931FA7019601AC
:101F8000BED12138310541055105F8F4213460F402
:101F9000213260F4213160F4293060F4253060F49E
:101FA000233060F080E00BC083E009C082E007C00E
:101FB00082E805C081E003C081E801C080E8988123
:101FC0009C77982B988381E001C08FEFDF91CF91B0
:101FD0001F910F91FF90EF90DF90CF9008950F9396
:101FE0001F93CF93DF93282F30E0F901719644E0DF
:101FF000EE0FFF1F4A95E1F760910401A0910301E4
:10200000A9014C5F5F4FC1E0D0E08E01042E01C0FA
:10201000000F0A94EAF7082E01C0CC0F0A94EAF7E1
:10202000C02BAC23B0E08D01042E02C0159507959E
:102030000A94E2F700FD1DC0082E02C0B595A795D1
:102040000A94E2F7A0FD18C0C6236C2F70E0DB01F4
:1020500002C0B595A7954A95E2F7A0FD10C0AB0167
:1020600002C0559547958A95E2F7CA018170992774
:1020700008C084E090E005C083E090E002C082E008
:1020800090E0418140634183F901EE0FFF1FE45866
:10209000F94D0190F081E02D309729F0DF91CF913B
:1020A0001F910F911994DF91CF911F910F91089576
:1020B00061E080E090E00E94A1039FB7F894E7E719
:1020C000F6E280818F5F80839FBFE0E0F1E080E4F3
:1020D000808380E880830895E82FF0E0EE0FFF1FF3
:1020E000E458F94D6083718308951F920F920FB6E3
:1020F0000F92112408B60F9218BE09B60F9219BE9E
:102100000BB60F921BBE2F933F934F935F936F932A
:102110007F938F939F93AF93BF93EF93FF9380E051
:102120005EDFFF91EF91BF91AF919F918F917F9172
:102130006F915F914F913F912F910F900BBE0F9038
:1021400009BE0F9008BE0F900FBE0F901F901895FC
:102150001F920F920FB60F92112408B60F9218BE5D
:1021600009B60F9219BE0BB60F921BBE2F933F9369
:102170004F935F936F937F938F939F93AF93BF938F
:10218000EF93FF9381E02BDFFF91EF91BF91AF9130
:102190009F918F917F916F915F914F913F912F917F
:1021A0000F900BBE0F9009BE0F9008BE0F900FBE90
:1021B0000F901F9018951F920F920FB60F92112437
:1021C00008B60F9218BE09B60F9219BE0BB60F9241
:1021D0001BBE2F933F934F935F936F937F938F9388
:1021E0009F93AF93BF93EF93FF9382E0F8DEFF914D
:1021F000EF91BF91AF919F918F917F916F915F917F
:102200004F913F912F910F900BBE0F9009BE0F90F1
:1022100008BE0F900FBE0F901F9018951F920F923F
:102220000FB60F92112408B60F9218BE09B60F927E
:1022300019BE0BB60F921BBE2F933F934F935F9324
:102240006F937F938F939F93AF93BF93EF93FF937E
:1022500083E0C5DEFF91EF91BF91AF919F918F9188
:102260007F916F915F914F913F912F910F900BBE96
:102270000F9009BE0F9008BE0F900FBE0F901F90D9
:102280001895DB01E82FF0E0719664E0EE0FFF1F78
:102290006A95E1F72FB7F89419968C91199784876E
:1022A0001A968C911A978587168617968C91179790
:1022B000808718968C9118978187128612968C9138
:1022C0001297828313968C911397838314968D9122
:1022D0009C9115978483958316968C911697868387
:1022E00011968C91119781838C918F7780832FBF6A
:1022F00008951BBEFC0128ED24BF60830895A1E270
:102300001A2EAA1BBB1BFD010DC0AA1FBB1FEE1F6F
:10231000FF1FA217B307E407F50720F0A21BB30BBA
:10232000E40BF50B661F771F881F991F1A9469F736
:1023300060957095809590959B01AC01BD01CF0192
:102340000895DC0101C06D9341505040E0F70895BD
:04235000F894FFCF2F
:102354002C00C20100030000000000000E00060073
:062364000C000400000063
:00000001FF
