:100000000C9434000C9451000C9451000C94510049
:100010000C9451000C9451000C9451000C9451001C
:100020000C9451000C9451000C9451000C9451000C
:100030000C9451000C9451000C9451000C945100FC
:100040000C9451000C9451000C945F010C945100DD
:100050000C9451000C9451000C9451000C945100DC
:100060000C9451000C94510011241FBECFEFD8E026
:10007000DEBFCDBF11E0A0E0B1E0E4EFFDE002C0E3
:1000800005900D92A434B107D9F717E0A4E4B1E0CC
:1000900001C01D92A636B107E1F70E947E020C94C2
:1000A000F8060C9400008EBD0DB407FEFDCF089538
:1000B0000F93DB01A770BB2730E63A9FF0013B9F0F
:1000C000F00D11240196DC01AA0FBB1FA80FB91F68
:1000D000EA1BFB0BCF01805A9F4F53E07695679543
:1000E0005A95E1F730E3369FF001379FF00D112468
:1000F0008E1B9F0BE0914801F0914901E80FF91F19
:100100000083E0914801F0914901E80FF91F218334
:10011000E0914801F0914901E80FF91F42830F91E6
:1001200008950F931F93CF93DF938C01FA01D901A8
:10013000EC018881998120813181820F931F9983FD
:100140008883EB01288139818D919C911197280F2B
:10015000391F39832883808191818130910531F461
:10016000E801488159814F305105A9F04D915C91CA
:1001700011974130510531F42F30310519F48FEFCB
:100180009FEF15C08F3FDFEF9D0751F4E8016881B5
:100190007981672B29F4118210828D939C930BC077
:1001A0004F3F5F4F41F4232B31F481E090E0918386
:1001B00080831D921C92DF91CF911F910F91089522
:1001C000AF92BF92CF92DF92EF92FF920F931F9365
:1001D000CF93DF93CDB7DEB728970FB6F894DEBF85
:1001E0000FBECDBF5C016B018A0179010E949100B5
:1001F000F5018081918198878F83F60160817181FB
:100200007E836D83F801208131813C832B83F7014C
:10021000208131813A83298300E020E040E00E9480
:100220005800E12CF12C62E0C62ED12CA6010E2C38
:1002300001C0440F0A94EAF71FEF140F9E012F5FCD
:100240003F4FAE014D5F5F4FBE016B5F7F4FCE01F1
:1002500007960E9491006D817E81012F212F412FF1
:100260008F8198850E945800FFEFEF1AFF0A88E0FF
:10027000E816F104D9F628960FB6F894DEBF0FBE43
:10028000CDBFDF91CF911F910F91FF90EF90DF9045
:10029000CF90BF90AF9008959091C00095FFFCCF94
:1002A0008093C6000895CF93DF93EC018991882352
:1002B00019F00E944C01FACFDF91CF9108951F925F
:1002C0000F920FB60F9211240F931F932F933F930A
:1002D0004F935F936F937F938F939F93AF93BF934E
:1002E000EF93FF93CF93DF93CDB7DEB72C97DEBFAD
:1002F000CDBF2091C600809144018130D9F4E091B6
:100300004A01F0914B018091460190914701E80F1D
:10031000F91F2083809146019091470101969093A7
:100320004701809346018115934009F051C0109216
:1003300044014EC0223031F410920A0181E08093D2
:10034000450146C0213039F4109247011092460110
:10035000209344013DC0223531F4809165078F938D
:100360008091640707C02435D9F4809162048F938B
:10037000809161048F938DE291E09F938F938E0122
:100380000F5F1F4F1F930F930E942704C8010E9405
:1003900053010F900F900F900F900F900F9018C077
:1003A0002635B1F466E371E0CE0101960E94200487
:1003B00068E371E0CE0101960E94150461E471E0EA
:1003C000CE0101960E941504CE0101960E945301B0
:1003D0002C960FB6F894DEBF0FBECDBFDF91CF9144
:1003E000FF91EF91BF91AF919F918F917F916F910D
:1003F0005F914F913F912F911F910F910F900FBEE1
:100400000F901F9018959BB121E030E001C0220FA2
:100410008A95EAF7822F807F892B8BB988B12F705C
:10042000282B28B90895FF920F931F93CF93DF9342
:10043000F82E299AC4E0D0E009E010E080E00E94A4
:1004400053000150110901151105C1F780E00E9408
:10045000530080E00E9453008FE70E9453008F2DCD
:100460000E9453008F2D0E9453008F2D0E94530035
:1004700005E110E08FEF0E945300015011090115B2
:100480001105C1F721972097B9F629988CEC9AE0CD
:100490000197F1F700C00000299A8CEC9AE00197CF
:1004A000F1F700C000002998DF91CF911F910F91C3
:1004B000FF900895089560915C01E62FF0E020918F
:1004C0005D0130915E01280F391FEE0FFF1FEC5ABE
:1004D000FE4F40815181241B350B30935E012093E8
:1004E0005D019183808381E0860F837080935C013E
:1004F000C901969587959695879508952FEF3FEBBF
:1005000046E0215030404040E1F700C000008FEF4E
:100510009FEBA6E081509040A040E1F700C00000B2
:10052000BFEF2FEB36E0B15020403040E1F700C084
:1005300000004FEF8FEB96E0415080409040E1F794
:1005400000C00000AFEFBFEB26E0A150B04020405C
:10055000E1F700C000008BB18F708BB988B1807F4C
:1005600088B98AB1806F8AB987B18F6087B92998B5
:10057000219A5B98539A88B1807188B93C9AE0912E
:100580000B01F0910C0180E093E0DF019C011D92D2
:1005900021503040E1F7E0910D01F0910E01DF01B3
:1005A0009C011D9221503040E1F780914C019091C7
:1005B0004D01FC01EE0FFF1FE55FFE4F20813181F1
:1005C0003093490120934801E1E0F0E0892B11F0DC
:1005D000E0E0F0E0EE0FFF1FE55FFE4F80819181CC
:1005E00090934B0180934A011092C50085E080935F
:1005F000C40088E98093C10086E08093C2008EE346
:1006000091E00E9453017894239A259A80E58CBD4D
:1006100081E08DBD8FEF809363040E94130287E019
:1006200080937C0080917A00806C80937A00109295
:100630006204109261041092600110925F01C0E0A8
:10064000D0E010E6D12ECC24C3949E01277033272E
:10065000D29EC001D39E900D1124E0904801F090ED
:100660004901E80EF91E80910A018823C9F0CE01E4
:100670008F739927892BA1F420E531E046E051E002
:1006800062E571E088E091E00E94E0002EE431E054
:1006900040E051E062E071E084E091E00E94E0001F
:1006A00000E010E0F701E00FF11FB080A1808B2D7A
:1006B00082958F700E9453008B2D8295807F0E94BF
:1006C00053008A2D0E9453000E5F1F4F0036110504
:1006D00049F75B988BB18F708BB988B1807F88B9EF
:1006E0003BE03A95F1F700008C2F87700E940302DF
:1006F000299A5B9A29982196809145018E0107706D
:100700001127882361F10115110549F5E1E0809178
:100710004C0190914D01892B09F0E0E0AE2FB0E043
:10072000B0934D01A0934C01AA0FBB1FA55FBE4F14
:100730008D919C919093490180934801EC25F0E0C4
:10074000EE0FFF1FE55FFE4F8081918190934B017B
:1007500080934A011092450186E40E944C018091E9
:100760007A0086FD72CF012B09F06FCF809178005F
:100770002091790090E0922B909365078093640715
:1007800080917A00806480937A00809164079091D0
:1007900065070E945B02909362048093610420913C
:1007A0005F013091600128173907B8F46091630444
:1007B000EEE1F1E020E030E0419151914817590716
:1007C00030F4D901A85DBE4F4C916417D0F02F5F73
:1007D0003F4F2530310581F71FC082179307E0F4A2
:1007E00060916304E9E1F1E024E030E0529142914C
:1007F0008417950770F4D901A75EBE4F4C91461738
:1008000040F45B988C91809363040E9413025B9A7E
:1008100003C02150310950F7809161049091620426
:100820009093600180935F0110CFFB01DC010D907C
:100830000020E9F7119701900D920020E1F708954B
:10084000FB01DC0101900D920020E1F70895AEE07C
:10085000B0E0EDE2F4E00C94CF060D891E8986E04D
:100860008C831A8309838FEF9FE79E838D83AE016C
:10087000475E5F4F6F89788DCE0101960E944904D3
:10088000EF81F885E00FF11F10822E96E4E00C94C2
:10089000EB06ACE0B0E0EFE4F4E00C94C1067C01C0
:1008A0006B018A01FC0117821682838181FFBDC121
:1008B000CE0101964C01F7019381F60193FD8591DC
:1008C00093FF81916F01882309F4ABC1853239F41C
:1008D00093FD859193FF81916F01853229F4B701D2
:1008E00090E00E943106E7CF512C312C20E02032DD
:1008F000A0F48B3269F030F4803259F0833269F41D
:1009000020612CC08D3239F0803339F4216026C04B
:100910002260246023C0286021C027FD27C030ED5D
:10092000380F3A3078F426FF06C0FAE05F9E300DAB
:100930001124532E13C08AE0389E300D1124332E1B
:1009400020620CC08E3221F426FD6BC1206406C0EB
:100950008C3611F4206802C0883641F4F60193FD0C
:10096000859193FF81916F018111C1CF982F9F7D58
:100970009554933028F40C5F1F4FFFE3F9830DC0AB
:10098000833631F0833771F0833509F05BC022C0C4
:10099000F801808189830E5F1F4F44244394512CBA
:1009A000540115C03801F2E06F0E711CF801A080EF
:1009B000B18026FF03C0652D70E002C06FEF7FEFAE
:1009C000C5012C870E9426062C0183012C852F77D8
:1009D000222E17C03801F2E06F0E711CF801A080C2
:1009E000B18026FF03C0652D70E002C06FEF7FEF7E
:1009F000C5012C870E941B062C012C852068222E05
:100A0000830123FC1BC0832D90E048165906B0F4E7
:100A1000B70180E290E00E9431063A94F4CFF501EC
:100A200027FC859127FE81915F01B70190E00E942C
:100A3000310631103A94F1E04F1A51084114510433
:100A400071F7E5C0843611F0893639F5F80127FFD2
:100A500007C060817181828193810C5F1F4F08C044
:100A600060817181882777FD8095982F0E5F1F4FD9
:100A70002F76B22E97FF09C090958095709561955D
:100A80007F4F8F4F9F4F2068B22E2AE030E0A401A5
:100A90000E946306A82EA81844C0853729F42F7E2B
:100AA000B22E2AE030E025C0F22FF97FBF2E8F361C
:100AB000C1F018F4883579F0B4C0803719F0883760
:100AC00021F0AFC02F2F2061B22EB4FE0DC08B2DB0
:100AD0008460B82E09C024FF0AC09F2F9660B92EEB
:100AE00006C028E030E005C020E130E002C020E18F
:100AF00032E0F801B7FE07C0608171818281938185
:100B00000C5F1F4F06C06081718180E090E00E5F36
:100B10001F4FA4010E946306A82EA818FB2DFF7783
:100B2000BF2EB6FE0BC02B2D2E7FA51450F4B4FEA5
:100B30000AC0B2FC08C02B2D2E7E05C07A2C2B2DAE
:100B400003C07A2C01C0752C24FF0DC0FE01EA0DF4
:100B5000F11D8081803311F4297E09C022FF06C077
:100B60007394739404C0822F867809F0739423FDE4
:100B700013C020FF06C05A2C731418F4530C5718D6
:100B8000732C731468F4B70180E290E02C870E9404
:100B9000310673942C85F5CF731410F4371801C007
:100BA000312C24FF12C0B70180E390E02C870E9413
:100BB00031062C8522FF17C021FF03C088E590E095
:100BC00002C088E790E0B7010CC0822F867859F008
:100BD00021FD02C080E201C08BE227FD8DE2B7015A
:100BE00090E00E943106A51438F4B70180E390E04C
:100BF0000E9431065A94F7CFAA94F401EA0DF11D30
:100C00008081B70190E00E943106A110F5CF33201A
:100C100009F451CEB70180E290E00E9431063A9487
:100C2000F6CFF7018681978102C08FEF9FEF2C9658
:100C3000E2E10C94DD06FC0105906150704001106A
:100C4000D8F7809590958E0F9F1F0895FC016150F5
:100C5000704001900110D8F7809590958E0F9F1FDE
:100C600008950F931F93CF93DF93182F092FEB0154
:100C70008B8181FD03C08FEF9FEF20C082FF10C0EA
:100C80004E815F812C813D81421753077CF4E881BE
:100C9000F9819F012F5F3F4F39832883108306C05E
:100CA000E885F985812F0995892B29F72E813F81C8
:100CB0002F5F3F4F3F832E83812F902FDF91CF9166
:100CC0001F910F910895FA01AA27283051F1203180
:100CD00081F1E8946F936E7F6E5F7F4F8F4F9F4FD0
:100CE000AF4FB1E03ED0B4E03CD0670F781F891F12
:100CF0009A1FA11D680F791F8A1F911DA11D6A0FE0
:100D0000711D811D911DA11D20D009F468943F9192
:100D10002AE0269F11243019305D3193DEF6CF0191
:100D20000895462F4770405D4193B3E00FD0C9F757
:100D3000F6CF462F4F70405D4A3318F0495D31FDC4
:100D40004052419302D0A9F7EACFB4E0A695979517
:100D5000879577956795BA95C9F7009761057105ED
:100D600008959B01AC010A2E069457954795379537
:100D70002795BA95C9F7620F731F841F951FA01D91
:100D800008952F923F924F925F926F927F928F922F
:100D90009F92AF92BF92CF92DF92EF92FF920F930A
:100DA0001F93CF93DF93CDB7DEB7CA1BDB0B0FB614
:100DB000F894DEBF0FBECDBF09942A8839884888D1
:100DC0005F846E847D848C849B84AA84B984C88467
:100DD000DF80EE80FD800C811B81AA81B981CE0F5E
:100DE000D11D0FB6F894DEBF0FBECDBFED01089543
:040DF000F894FFCFA5
:100DF400FFFF0F000800010008000164046101FF07
:100E040003D101C401B701AA01FFB4805A40E5012E
:100E1400DF01D101C401B701FFB4805A4030782505
:100E24003033780D0A005600312E302E31004C45F7
:040E3400440D0A005F
:00000001FF
